:100000000C94E3000C940B010C940B010C940B0169
:100010000C940B010C940B010C940B010C940B0130
:100020000C940B010C940B010C940B010C940B0120
:100030000C940B010C940B010C940B010C940B0110
:100040000C94E0270C940B010C94E5100C94BF1059
:100050000C940B010C940B010C940B010C940B01F0
:100060000C9400250C940B010000000025002800D2
:100070002B0000000008000201000003040700003C
:1000800000000000000000000000240027002A00FB
:10009000005EBCE2613FDD83C29C7E20A3FD1F4168
:1000A0009DC3217FFCA2401E5F01E3BD3E6082DC58
:1000B000237D9FC1421CFEA0E1BF5D0380DE3C6248
:1000C000BEE0025CDF81633D7C22C09E1D43A1FF38
:1000D0004618FAA427799BC584DA3866E5BB590728
:1000E000DB856739BAE406581947A5FB7826C49A18
:1000F000653BD987045AB8E6A7F91B45C6987A2408
:10010000F8A6441A99C7257B3A6486D85B05E7B9F7
:100110008CD2306EEDB3510F4E10F2AC2F7193CDE7
:10012000114FADF3702ECC92D38D6F31B2EC0E50D7
:10013000AFF1134DCE90722C6D33D18F0C52B0EEC7
:10014000326C8ED0530DEFB1F0AE4C1291CF2D73B7
:10015000CA947628ABF517490856B4EA6937D58BA7
:100160005709EBB536688AD495CB2977F4AA481697
:10017000E9B7550B88D6346A2B7597C94A14F6A887
:10018000742AC896154BA9F7B6E80A54D7896B3577
:1001900000000000230026002900040404040404D5
:1001A0000404020202020202030303030303010226
:1001B00004081020408001020408102001020408F5
:1001C00010209F2F532F11241FBECFEFD8E0DEBF8A
:1001D000CDBF16E0A0E0B1E0E8E9FFE602C005907F
:1001E0000D92A632B107D9F729E0A6E2B6E001C028
:1001F0001D92A631B207E1F710E0C2EED0E004C0D4
:100200002197FE010E949735C13ED107C9F70E9490
:100210002A280C94BF370C9400000C9432360C94AE
:1002200032360C9432360C94323685ED8093BC0015
:100230008091BC0084FDFCCF109228060895409167
:100240009A08262F30E0240F311D21323105DCF4CD
:10025000209128062430C9F4FC0180E090E0861744
:1002600058F430919A082191DC01A658B74FA30F9A
:10027000B11D2C930196F3CF80919A08680F60937B
:100280009A0880E0089581E0089582E00895CF9271
:10029000DF92EF92FF92CF93DF93EC0168E274E07C
:1002A00085E597E00E949F106E01DD0FEE08FF08C4
:1002B000F7FE0EC06DE285E597E00E94700F4427BF
:1002C0005527BA014C195D096E097F092AE003C060
:1002D0002AE0B701A60185E597E00E94110F63E7C8
:1002E00074E085E597E00E949F108C2F0E943A0BE6
:1002F000892B19F065E374E002C06AE374E085E5D8
:1003000097E0DF91CF91FF90EF90DF90CF900C942A
:100310005E0F2F923F924F925F926F927F928F92D9
:100320009F92AF92BF92CF92DF92EF92FF920F9384
:100330001F93CF93DF93CDB7DEB760970FB6F894D6
:10034000DEBF0FBECDBF85E997E00E940C09BC015E
:1003500086E896E00E945E0F2AE030E0388B2F8717
:100360002090730630907406ACE34A2E512C612C19
:10037000712CA3E4B6E0E0E31D92EA95E9F7F3EE11
:10038000F093430686E0809345068CEE8093460604
:1003900081E380934F069EE490935006809351062C
:1003A00084E3809352064BE750E060E071E081E126
:1003B00098E00E94B71640E350E063E476E081E104
:1003C00098E00E940E1681E198E00E947F1664E694
:1003D00070E080E090E00E949A2740E350E063E400
:1003E00076E081E198E00E946D15C0906B06D12CFB
:1003F000DC2CCC2480916C06C82AE12CF12CD6018F
:1004000099278827C0906D06D12CDC2CCC24209114
:100410006E06C22AE12CF12CC82AD92AEA2AFB2A24
:10042000C114D104E104F10409F488C06EE374E05E
:1004300086E896E00E949F10C701B6010E94F90865
:100440006AE574E086E896E00E949F1020E8C21AF0
:100450002EE7D20A2AEAE20A23E8F20AC701B60125
:100460000E94F90867E674E086E896E00E949F1013
:10047000C701B60120E831E541E050E00E941334A5
:1004800020E13EE040E050E00E941334BA01A901AF
:10049000D10113965C934E9312972AE086E896E07A
:1004A0000E94110F6AE386E896E00E94700FC70170
:1004B000B60120E13EE040E050E00E9413344B01E1
:1004C0005C01683572408105910528F460E386E897
:1004D00096E00E94700FC501B401A30192010E9431
:1004E0001334BA01A901F101558344832AE086E857
:1004F00096E00E94110F6AE386E896E00E94700F72
:10050000C701B601A30192010E9413346B017C0163
:100510006A3071058105910528F460E386E896E06C
:100520000E94700FD1011796DC92CE921697C701E8
:10053000B6010E94F908DD24D39401C0D12C68EBE8
:100540007BE080E090E00E949A2781E198E00E94A1
:10055000B5150091290710912A070115110509F415
:10056000F3C00E94D4274B015C017801BEE3EB0E7F
:10057000F11CF70180819181A281B381A5019401D1
:10058000281B390B4A0B5B0BCA01B901683E33E0EB
:1005900073078105910508F446C028EE33E040E07A
:1005A00050E00E941334861A970AA80AB90AD701A4
:1005B0008D929D92AD92BC921397F80186A597A556
:1005C000A0A9B1A949015A01880C991CAA1CBB1CFD
:1005D00088159905AA05BB0528F416A617A610AA22
:1005E00011AA09C0821B930BA40BB50BF80186A7B7
:1005F00097A7A0ABB1ABF80182A993A9A4A9B5A90B
:1006000088159905AA05BB0528F412AA13AA14AAED
:1006100015AA09C0821B930BA40BB50BF80182AB82
:1006200093ABA4ABB5ABF80186A597A5A0A9B1A9DA
:10063000892B8A2B8B2B61F4EE5BFF4F80818330FB
:1006400039F484E08083C8010E942621019602C00B
:1006500080E090E0D801D2964D915D916D917C91B2
:10066000D597452B462B472BA1F4F801EE5BFF4FA6
:100670002081233011F021110CC01082F8013E9628
:1006800084E1DF011D928A95E9F7C8010E942621C5
:1006900003968230910519F0049709F055C080E562
:1006A00090E00E94F0236091290770912A07625F11
:1006B0007F4FCE0109960E94AF1044E050E0BE018A
:1006C000655F7F4F8FE090E00E94EF2260912907E5
:1006D00070912A076A5E7F4FCE0109960E94AF1083
:1006E00044E050E0BE01655F7F4F81E090E00E94F2
:1006F000EF226091290770912A076E5E7F4FCE012D
:1007000009960E94AF1044E050E0BE01655F7F4F44
:1007100085E090E00E94EF220E94EF23609129077C
:1007200070912A07625E7F4FCE0109960E94AF103A
:100730008B859C85AD85BE85809325079093260784
:10074000A0932707B0932807DD2009F4A8C0F10182
:10075000A2809480868085E997E00E941712B22ECD
:10076000152F062F29833A834B835C836D837E8309
:100770008F839887EE80FF8068E774E086E896E0D4
:100780000E949F10402F50E060E070E02AE086E871
:1007900096E00E94110F86E896E00E945A0F8CEFB7
:1007A000800F863018F46FE974E06BC0F101C12C42
:1007B000D12C868597858E159F05B1F462ED74E086
:1007C00086E896E00E945E0F0A30B1F462EE74E0B3
:1007D00086E896E00E945E0F61EF74E086E896E09E
:1007E0000E945E0F00E009C02FEFC21AD20A3696AF
:1007F00035E0C316D104E9F601E086E08C9D700176
:100800008D9DF00C1124E20CF31CD70152964D91F2
:100810005C91539760E070E02AE086E896E00E94E1
:10082000110F86E896E00E945A0F412F50E060E0D9
:1008300070E02AE086E896E00E94110F86E896E0D4
:100840000E945A0F812F90E0F70122893389821785
:100850009307E9F4002331F0F2E0FB1548F463E07C
:1008600075E00FC022E02B1550F46AE175E002C07C
:1008700066E275E086E896E00E945E0F08C061E3DC
:1008800075E086E896E00E945E0F82E001C081E09C
:10089000482D692D8A0D0E945C0A11E001C010E00C
:1008A00064EF71E080E090E00E949A274F855889BC
:1008B00041505109588B4F87452B19F0112309F4EA
:1008C00058CD812F60960FB6F894DEBF0FBECDBF16
:1008D000DF91CF911F910F91FF90EF90DF90CF901C
:1008E000BF90AF909F908F907F906F905F904F9050
:1008F0003F902F90089508952F923F924F925F92CC
:100900006F927F928F929F92AF92BF92CF92DF921F
:10091000EF92FF920F931F93CF93DF93CDB7DEB784
:10092000CF5AD1090FB6F894DEBF0FBECDBF1C0160
:10093000FC01828193810E947109F101248135813A
:100940008217930781F0268137818217930759F028
:1009500022E4622E25E0722E3BE4A32E35E0B32E76
:1009600004E515E00AC08DE5682E85E0782E96E650
:10097000A92E95E0B92E0FE615E0CE0149960E940A
:100980000912F101828193810E9417125C8FF1019B
:10099000828193810E941712C256DF4F7883CE590D
:1009A000D040C156DF4F8883CF59D040C256DF4F69
:1009B00088819981CE59D0409F8F8E8FF10182819D
:1009C00093810E9417126D8FF101828193810E94A1
:1009D0001712792F98A3C801C155DF4F7883CF5ADA
:1009E000D0400E946032E82E898FC80103960E9491
:1009F0006032F82E8A8FC80106960E946032282F36
:100A00008B8F87013C8D4D8D5E8D6F8DC155DF4F76
:100A10007881CF5AD040F101828193810E948E115A
:100A2000C555DF4F688379838A839B83CB5AD04037
:100A3000CE0141960E940912F101828193810E94A8
:100A400017125C8BF101828193810E941712EF963D
:100A50007FAFEF97C158DF4F8883CF57D040C25840
:100A6000DF4F88819981CE57D0409F8B8E8BF101CB
:100A7000828193810E9417126D8BF1018281938193
:100A80000E941712792F988F88E795E0C155DF4FA4
:100A90007883CF5AD0400E946032082F898B8BE731
:100AA00095E00E946032182F8A8B8EE795E00E94B5
:100AB0006032282F8B8B3C894D895E896F89C155A7
:100AC000DF4F7881CF5AD040F101828193810E941B
:100AD0008E116B017C01CE0109960E940912F10171
:100AE000828193810E9417125C87F1018281938138
:100AF0000E9417126F967FAF6F97A0968FAFA09747
:100B0000A0968EAD9FADA0979F878E87F1018281C1
:100B100093810E9417126D87F101828193810E9457
:100B20001712792F988BC501C155DF4F7883CF5AA3
:100B3000D0400E946032082F8987C50103960E9429
:100B40006032182F8A87C50106960E946032282FCE
:100B50008B873C854D855E856F85C155DF4F7881DC
:100B6000CF5AD040F101828193810E948E114B01B6
:100B70005C01CE0101960E940912F10182819381EC
:100B80000E9417125C83F101828193810E941712E7
:100B90007EAF8FAF8EAD9FAD9F838E83F10182813B
:100BA00093810E9417126D83F101828193810E94CB
:100BB0001712792F9887C301C155DF4F7883CF5A19
:100BC000D0400E946032082F8983C30103960E949F
:100BD0006032182F8A83C30106960E946032282F44
:100BE0008B83F1010280F381E02DC755DF4FF9833C
:100BF000E883C95AD0403C814D815E816F81C155E7
:100C0000DF4F7881CF5AD040CF010E948E112B0147
:100C10003C01C755DF4F88819981C95AD0400E9455
:100C2000171289019A01AB01BC01F1018281938104
:100C30000E948E114616570668067906FCF0861645
:100C40009706A806B906C4F0C616D706E806F90640
:100C5000ACF031E020E0C555DF4FE880F9800A8133
:100C60001B81CB5AD040E616F706080719070CF48B
:100C700030E0832F922F04C080E001C081E090E03B
:100C8000C155DF4F0FB6F894DEBF0FBECDBFDF9169
:100C9000CF911F910F91FF90EF90DF90CF90BF9079
:100CA000AF909F908F907F906F905F904F903F900C
:100CB0002F9008950895CF93DF93EC0161E875E0DC
:100CC00086E896E00E945E0F81E090E09B838A8335
:100CD00060E08BE0DF91CF910C94630B08954F920D
:100CE0005F926F927F928F929F92AF92BF92CF92BC
:100CF000DF92EF92FF920F931F93CF93DF93CDB7C5
:100D0000DEB761970FB6F894DEBF0FBECDBF7C0192
:100D1000DC0114960D911C911597F801858196813F
:100D20000E94BF1740E06CECD80115968D919C9104
:100D300016970E94BB13F801408164E48581968177
:100D40000E94BB13D80112968C9112978823E9F167
:100D50001196EC91E950E33040F4F0E0EE0FFF1F04
:100D6000E85BFE4FC080D18004C0FEEECF2EF2E0E3
:100D7000DF2EF8018381882311F1808181111FC04A
:100D80000E94D4272B013C014601DD0CAA08BB08B8
:100D9000D80115968D919C9116970E946C17813001
:100DA000A1F00E94D427DC01CB0188199909AA0976
:100DB000BB0984159505A605B70550F306C0B60115
:100DC000DD0C880B990B0E949A27F701048115818D
:100DD00040E0BE01665F7F4FC8010E947F13811112
:100DE00005C060E070E08EEF92EC4BC0AE014F5F4B
:100DF0005F4FBE01665F7F4FC8010E942A1488239F
:100E000059F16981F8E06F9FB00111248A81282F80
:100E100030E0322F2227330F330F330F262B372B9F
:100E20008A858031E1F4688570E08F81AB01481BD1
:100E30005109CA019695982F8827979587950E9402
:100E4000683560517109207F53E0220F331F5A9596
:100E5000E1F7620F731F04C060E874EE01C0B901CE
:100E6000613854EE75070CF4BCCF072E000C880BCC
:100E7000990B0E948D3220E030E040E05CE30E945C
:100E8000EC3261960FB6F894DEBF0FBECDBFDF9196
:100E9000CF911F910F91FF90EF90DF90CF90BF9077
:100EA000AF909F908F907F906F905F904F9008953C
:100EB000CF92DF92EF92FF92CF93DF93EC010E94EB
:100EC0006F066B017C0120E030E040E251E40E94BB
:100ED00052351816ACF520E030E040E252E4C7018C
:100EE000B6010E94863287FF2BC040E060E08E8111
:100EF0009F810E9498246A857B858E819F810E94B4
:100F00009F1040E068E08E819F810E94982422E03B
:100F1000B701A6018E819F810E94770F40E06EE0AD
:100F20008E819F810E9498246CE875E08E819F815C
:100F3000DF91CF91FF90EF90DF90CF900C949F10B6
:100F4000DF91CF91FF90EF90DF90CF9008950895BB
:100F5000833081F028F4813099F08230A1F0089537
:100F60008730A9F08830B9F08430D1F480918000C6
:100F70008F7D03C0809180008F77809380000895DB
:100F800084B58F7702C084B58F7D84BD089580912C
:100F9000B0008F7703C08091B0008F7D8093B00048
:100FA0000895CF93DF9390919E07992349F194EE92
:100FB0009093BC009091BC0097FFFCCF90ED909374
:100FC000BB0094EC9093BC009091BC0097FFFCCFC9
:100FD0008093BB0084EC8093BC008091BC0087FFB1
:100FE000FCCF6093BB0084EC8093BC008091BC007C
:100FF00087FFFCCF84E98093BC00DF91CF910895F7
:10100000C62FD82F60ED85E997E00E94601185E931
:1010100097E00E9431116D2F85E997E00E9417112A
:1010200085E997E00E9431116C2F85E997E00E94D5
:10103000171185E997E00E94311185E997E0DF916A
:10104000CF910C944711CF93C82F462F61E070E0E9
:101050000E94CB2361E070E08C2F0E94CE2481118E
:10106000F9CFCF9108959F92AF92BF92CF92DF9226
:10107000EF92FF920F931F93CF93DF93982E8B01E4
:101080005A01690164E270E00E94CE24E82EF12C3E
:1010900065E270E0892D0E94CE24FE2CEE24E82A21
:1010A000E701C00FD11F9E013770E92CF12CC70159
:1010B000880F991FAC014B58594F7A01FA01808172
:1010C0009181820F931FA9014C0D5D1D4130584045
:1010D00090F000E018E0021B130BA801B5010E947C
:1010E000EF22A601401B510BB501600F711FF701E4
:1010F0008081918102C0A601B5010E94EF22CC0D32
:10110000DD1D4D2F64E270E0892D0E94CB234C2F12
:1011100065E270E0892DDF91CF911F910F91FF90D3
:10112000EF90DF90CF90BF90AF909F900C94CB2327
:10113000FF920F931F93CF93DF93F82EC0E0D0E080
:101140008F2D0E9448268C01892B21F08F2D0E9423
:101150004826EC01C017D10799F7CE01DF91CF9156
:101160001F910F91FF900895AF92BF92CF92DF929F
:10117000EF92FF920F931F93CF93DF9300D0CDB7E1
:10118000DEB77A836983BA01A901E981FA81F77030
:10119000082F10E0000F111F0358194FD8018D912F
:1011A0009C918E0F9F1F2E0F3F1F2130384098F0CB
:1011B0007A015B0120E038E06901CE1ADF0AA6015E
:1011C0000E94BF22A7014C195D09B5016C0D7D1D60
:1011D000F801808191810F900F90DF91CF911F9145
:1011E0000F91FF90EF90DF90CF90BF90AF900C9455
:1011F000BF22CF93DF93AB01BC012AE086E896E0E3
:101200000E94110FEC0186E896E00E945A0F8C0FA5
:101210009D1FDF91CF9108950F931F93CF93DF937D
:10122000CDB7DEB728970FB6F894DEBF0FBECDBF9F
:101230008C01CE0101960E940912C8010E9417126A
:101240003A834B832A3010F480E305C0822F6AE092
:101250000E945C35805D809313013AE0822F632FFA
:101260000E945C35905D909314018AE38093150190
:101270002A812A3010F480E305C0822F632F0E9458
:101280005C35805D809316013AE0822F632F0E94C7
:101290005C35905D909317018AE3809318012B8150
:1012A0002A3010F480E305C0822F632F0E945C3542
:1012B000805D80931901822F6AE00E945C35905D09
:1012C00090931A0110921B0183E191E028960FB6CA
:1012D000F894DEBF0FBECDBFDF91CF911F910F916C
:1012E00008950F931F93CF93DF93CDB7DEB7669723
:1012F0000FB6F894DEBF0FBECDBF8C019EE0EEE4CA
:10130000F1E0DE01119601900D929A95E1F7CE0180
:101310000F960E940912C8010E9417129E012F5FAA
:101320003F4F290F311D290F311DF901329780815F
:10133000918166960FB6F894DEBF0FBECDBFDF91E8
:10134000CF911F910F910895AF92BF92CF92DF92EC
:10135000EF92FF920F931F93CF93DF931F92CDB71E
:10136000DEB75C01D62EE72EFC018585811105C014
:10137000C5010E94BF17811106C0F50113861586AD
:10138000148680E065C040E060EFC5010E94BB1399
:1013900001E0F12CC12C11E0C5010E946C17682FEF
:1013A000C50169830E946C176981613019F481302D
:1013B000B9F433C04F2D50E068131BC0F50183858D
:1013C000181730F4E40FF51F8381802349F402C01D
:1013D000181731F060E0193058F4F501148708C08F
:1013E000F501EF0DF11D8381802B838361E009C03E
:1013F000C12EF501E40FF51F9381802F809589237D
:101400008383C5010E9490171F5F000F11F4F394AE
:1014100001E0F7E0FF1508F0BFCF113408F4ADCFBD
:10142000F501C386C11002C081E08587F501838183
:10143000882309F4A2CFD5011396ED2DFE2D950139
:10144000255F3F4F8D918193A217B307D9F781E0B4
:101450000F90DF91CF911F910F91FF90EF90DF9050
:10146000CF90BF90AF900895E6E8F6E0A089B189EB
:1014700082E08C93A485B5851C92A685B7858FECF8
:101480008C93108EA489B58986E08C93A289B38948
:101490008C9180618C93A289B3898C9188608C93A4
:1014A000A289B3898C9180688C930288F389E02D9E
:1014B00080818F7D808308951F93CF93DF93883140
:1014C00068F56C3358F54C3348F5C42FD62F1AE025
:1014D000612F0E945C35692F20E1829F600D1124ED
:1014E00082E00E94D1078D2F612F0E945C35692F09
:1014F00020E1829F600D112481E00E94D1078C2F92
:10150000612F0E945C35692F20E1829F600D1124BC
:1015100080E0DF91CF911F910C94D107DF91CF91A3
:101520001F91089540E050E064EA75E08DE397E094
:101530000E94CC0E8DE397E00895CF93DF93CDB753
:10154000DEB729970FB6F894DEBF0FBECDBFAE0150
:101550004F5F5F4FBC0184E797E00E942A14882305
:1015600089F08D818F3361F020F48F3159F489E057
:101570000CC08F3519F08F3739F004C08BE005C0EF
:101580008AE003C080E001C08CE029960FB6F89491
:10159000DEBF0FBECDBFDF91CF910895CF93DF9314
:1015A000823028F090916D07986090936D0780933A
:1015B000700762E370E080E090E00E949A276091FB
:1015C000730788E697E00E94F32368EE73E080E0FB
:1015D00090E00E949A2760E388E697E00E945824F2
:1015E000CBE4D6E4CE010197F1F760E388E697E01B
:1015F0000E9458242197F1F760E388E697E00E9463
:10160000582483E592E00197F1F760E288E697E0DD
:101610000E94582460916D07606240E088E697E080
:101620000E94712484E080936E0740E06CE088E6BD
:1016300097E00E94712440E061E088E697E00E9414
:101640007124CBE3DFE1CE010197F1F782E08093D3
:101650006F0740E066E088E697E00E94712440E072
:1016600062E088E697E00E9471242197F1F7DF910C
:10167000CF910895CF93DF93282F30E0F901EE58F2
:10168000FF4F8491F901E255FE4FD491F901E656DE
:10169000FE4FC491CC2391F081110E94A807EC2F3A
:1016A000F0E0EE0FFF1FE057FE4FA591B491EC91D3
:1016B000ED2381E090E021F480E002C080E090E042
:1016C000DF91CF9108951F93CF93DF93282F30E0C0
:1016D000F901EE58FF4F8491F901E255FE4FD49184
:1016E000F901E656FE4FC491CC23C9F0162F8111A3
:1016F0000E94A807EC2FF0E0EE0FFF1FE859FF4F04
:10170000A591B4918FB7F894111105C09C91ED2F5C
:10171000E095E92302C0EC91ED2BEC938FBFDF91B4
:10172000CF911F910895EF92FF920F931F93CF9344
:10173000DF93E82EF62EC7E0D0E0042F10E09801EA
:101740000C2E02C0359527950A94E2F7B901617015
:1017500077278E2D0E94630B61E08F2D0E94630B13
:1017600060E08F2D0E94630B219748F7DF91CF91A6
:101770001F910F91FF90EF900895CF93DF9390E02A
:10178000FC01E255FE4F2491FC01E656FE4F849188
:10179000882361F190E0880F991FFC01EA57FF4F01
:1017A000C591D491FC01E859FF4FA591B491611105
:1017B00009C09FB7F8948881209582238883EC9193
:1017C0002E230BC0623061F49FB7F8943881822FCA
:1017D000809583238883EC912E2B2C939FBF06C08A
:1017E0008FB7F894E8812E2B28838FBFDF91CF919C
:1017F0000895CF92DF92EF92FF920F931F93CF93B2
:10180000DF93CDB7DEB7C254D1090FB6F894DEBF6F
:101810000FBECDBFFC0182819381A481B581239647
:101820008CAF9DAFAEAFBFAF239721E023962FAF14
:10183000239723964CAD5DAD6EAD7FAD23974BAB3B
:101840005CAB6DAB7EAB89AF9AAFABAFBCAF8DA7D6
:101850009EA7AFA7B8AB28AB4DA55EA56FA578A98D
:101860004FA358A769A77AA72EAB4BA95CA96DA96E
:101870007EA949A35AA36BA37CA38B8F9C8FAD8FAA
:10188000BE8F40E752E05C8B4B8B3FEF3D8B3E8B36
:101890003F8B188E5E874D872AA7CFA0D8A4E9A4D6
:1018A000FAA4CF86D88AE98AFA8A2CA309A11AA1B8
:1018B0002BA13CA109871A872B873C875A83498330
:1018C0008B839C83AD83BE836CE271E080E090E00B
:1018D0000E949A271FB7F89480918506811127C02E
:1018E000E4EAF1E08491E8EBF1E09491E82FF0E094
:1018F000EE0FFF1FEA57FF4FA591B491EC91E9233A
:1019000021F461E08AE00E94630B61E08AE00E94BA
:10191000BD0B8CB580618CBD8CB580648CBD61E0E5
:101920008DE00E94BD0B61E08BE00E94BD0B8091B9
:1019300085068F5F809385061FBF229A80E590E021
:101940000E94F02360E880E090E00E941E2365E59D
:101950008BE190E00E941E2365E58AE190E00E9401
:101960001E230E94EF2380E090E4909376068093FC
:10197000750680E090E690937E0680937D0680E079
:1019800098E4909378068093770680E098E69093A9
:10199000800680937F0680E090E590937A0680939E
:1019A000790680E090E7909382068093810680E03C
:1019B00098E590937C0680937B0680E098E790936F
:1019C00084068093830680E590E00E94F02346E041
:1019D00050E06DE071E089E090E00E94EF2244E089
:1019E00050E0BE016D5F7F4F8FE090E00E94EF22DC
:1019F00044E050E0BE01615F7F4F81E090E00E94D3
:101A0000EF2244E050E0BE016B5E7F4F85E090E046
:101A10000E94EF220E94EF2381E08C8789859A85BE
:101A2000AB85BC858093250790932607A093270755
:101A3000B0932807CE5BDF4F0FB6F894DEBF0FBE22
:101A4000CDBFDF91CF911F910F91FF90EF90DF906D
:101A5000CF90089580919607823101F58091950786
:101A60008331E1F481E080939E0761E082E10E948E
:101A7000630B61E083E10E94630B8091B9008E7F6C
:101A80008093B9008091B9008D7F8093B9008CE07C
:101A90008093B80085E08093BC00089510929E0763
:101AA00061E0809195070C94BD0BCF92DF92EF928D
:101AB000FF920F931F93CF93DF936C017A018B01F9
:101AC000C0E0D0E0CE15DF0589F0D8016D918D0121
:101AD000D601ED91FC910190F081E02DC6010995B0
:101AE000892B11F47E0102C02196ECCFC701DF9152
:101AF000CF911F910F91FF90EF90DF90CF900895BD
:101B0000FC01538D448D252F30E0842F90E0821B03
:101B1000930B541710F0CF96089501970895FC0188
:101B2000918D828D981761F0828DDF01A80FB11D14
:101B30005D968C91928D9F5F9F73928F90E0089538
:101B40008FEF9FEF0895FC01918D828D981731F0F2
:101B5000828DE80FF11D858D90E008958FEF9FEF46
:101B60000895FC01918D228D892F90E0805C9F4F1C
:101B7000821B91098F739927089586E896E00E9449
:101B8000B10D21E0892B09F420E0822F0895FC019A
:101B9000848DDF01A80FB11DA35ABF4F2C91848DF6
:101BA00090E001968F739927848FA689B7892C932B
:101BB000A089B1898C9180648C93938D848D9813C6
:101BC00006C00288F389E02D80818F7D808308958F
:101BD000EF92FF920F931F93CF93DF93EC0181E07D
:101BE000888F9B8D8C8D981305C0E889F989808139
:101BF00085FD24C0F62E0B8D10E00F5F1F4F0F7375
:101C00001127E02E8C8DE8120CC00FB607FCFACF1E
:101C1000E889F989808185FFF5CFCE010E94C70D43
:101C2000F1CF8B8DFE01E80FF11DE35AFF4FF082DB
:101C30000B8FEA89FB898081806207C0EE89FF896A
:101C40006083E889F98980818064808381E090E005
:101C5000DF91CF911F910F91FF90EF900895CF9357
:101C6000DF93EC01888D8823C9F0EA89FB898081A4
:101C700085FD05C0A889B9898C9186FD0FC00FB676
:101C800007FCF5CF808185FFF2CFA889B9898C91B7
:101C900085FFEDCFCE010E94C70DE7CFDF91CF9139
:101CA000089580E090E0892B29F00E94BD0D8111FC
:101CB0000C940000089508950E94943761157105F1
:101CC00079F0FB0101900020E9F73197AF01461B45
:101CD000570BDC01ED91FC910280F381E02D09941A
:101CE00080E090E00895FC0124813581FB0144816E
:101CF00055812417350721F5FC0180819181FB0175
:101D000060817181009719F061157105A1F4611569
:101D1000710549F0232BB1F0FB01808190E0919592
:101D2000819591090AC0009769F0232B59F0FC01B5
:101D3000808190E002C00E94AF3721E0892B19F02A
:101D400020E001C021E0822F08950F931F93CF93CD
:101D5000DF93EC0188819981009729F02A813B81EA
:101D60002617370788F48B016F5F7F4F0E94CA36B2
:101D7000009761F0998388831B830A832C813D81BE
:101D8000232B11F4FC01108281E001C080E0DF917F
:101D9000CF911F910F910895EF92FF920F931F9390
:101DA000CF93DF93EC017B018A01BA010E94A50E5B
:101DB0002881398181110DC02115310519F0C90122
:101DC0000E943236198218821D821C821B821A825E
:101DD00006C01D830C83B701C9010E94B837CE012C
:101DE000DF91CF911F910F91FF90EF900895FC012B
:101DF000808191810C943236FC0111821082138211
:101E00001282158214826115710551F0FB01019057
:101E10000020E9F73197AF01461B570B0C94CC0E0D
:101E200008954F925F926F927F92EF92FF920F937D
:101E30001F93CF93DF93CDB7DEB7A1970FB6F8947A
:101E4000DEBF0FBECDBF7C01FA01CB0119A222304B
:101E500008F42AE08E010F5D1F4F422E512C612C99
:101E6000712CBF01A30192010E941334F901CA0130
:101E7000015011096A3014F4605D01C0695CD80139
:101E80006C93232B242B252B61F7B801C7010E94EB
:101E90005E0EA1960FB6F894DEBF0FBECDBFDF91E8
:101EA000CF911F910F91FF90EF907F906F905F9077
:101EB0004F90089562EA75E00C945E0E0F931F93A5
:101EC000CF93DF93EC010E945E0E8C01CE010E9445
:101ED0005A0F800F911FDF91CF911F910F9108959D
:101EE000DC01ED91FC910190F081E02D09944F927D
:101EF0005F926F927F928F929F92AF92BF92CF929A
:101F0000DF92EF92FF92CF93DF93EC016A017B01A6
:101F1000B22E9A01AB01C701B6010E945735882342
:101F200019F065EA75E027C026013701E89477F8D3
:101F30002FEF3FEF4FE75FE7C301B2010E94573534
:101F400081110DC02FEF3FEF4FE75FE7C301B201F3
:101F50000E94863218161CF469EA75E00CC02FEF57
:101F60003FEF4FE75FE4C701B6010E9452351816F4
:101F70009CF46DEA75E0CE01DF91CF91FF90EF9078
:101F8000DF90CF90BF90AF909F908F907F906F9099
:101F90005F904F900C945E0E2FEF3FEF4FE75FEC9A
:101FA000C701B6010E94863287FDE3CF20E030E012
:101FB000A901C701B6010E94863287FF0AC06DE2FF
:101FC000CE010E94700F4C01F7FAF094F7F8F094EC
:101FD00002C0812C912CA12C60E070E080E09FE396
:101FE000AB1441F020E030E040E251E40E94B13413
:101FF000A394F6CF9B01AC01C701B6010E94453402
:102000002B013C010E9423356B017C010E948B3225
:102010009B01AC01C301B2010E9444342B013C017D
:102020002AE0B701A601CE010E94110F7C01E80C45
:10203000F91CBB2031F06EE2CE010E94700FE80E59
:10204000F91EDB2CDD2029F120E030E040E251E4F4
:10205000C301B2010E94EC322B013C010E942335E6
:102060004B01A12CB12C2AE0B501A401CE010E94A4
:10207000110FE80EF91EC501B4010E948B329B01BD
:10208000AC01C301B2010E9444342B013C01DA943B
:10209000D9CFC701DF91CF91FF90EF90DF90CF9024
:1020A000BF90AF909F908F907F906F905F904F9078
:1020B00008958F929F92AF92BF92CF92DF92EF924C
:1020C000FF920F931F93CF93DF937C018B016C01E1
:1020D00082E0C80ED11C4701E5E08E0E911CC0E0E5
:1020E000D0E0F60141916F0150E060E070E02AE03D
:1020F000C8010E94110F5C016EE2C8010E94700FBE
:102100008A0D9B1DC80FD91FC814D90451F7F701B8
:10211000458150E060E070E02AE0C8010E94110FA4
:102120008C0F9D1FDF91CF911F910F91FF90EF902A
:10213000DF90CF90BF90AF909F908F9008950C94B8
:102140005E0EDC01ED91FC91DB0114964D915C91EA
:1021500015976D917C910280F381E02D099420E721
:1021600032E0FC0131832083FB0140815181628197
:102170007381FC01428353836483758308951F92A6
:102180000F920FB60F9211242F933F934F935F93AB
:102190006F937F938F939F93AF93BF93EF93FF932F
:1021A00086E896E00E94C70DFF91EF91BF91AF9135
:1021B0009F918F917F916F915F914F913F912F915F
:1021C0000F900FBE0F901F9018951F920F920FB691
:1021D0000F9211242F938F939F93EF93FF93E0918E
:1021E0009606F09197068081E0919C06F0919D06FD
:1021F00082FD12C0908180919F068F5F8F73209126
:10220000A006821751F0E0919F06F0E0EA57F94FDF
:10221000958F80939F0601C08081FF91EF919F91E0
:102220008F912F910F900FBE0F901F9018950F93C5
:102230001F93CF93DF931F92CDB7DEB78C01462F4C
:1022400061E0FC01818149830E94BD0B4981F80155
:10225000608181810F90DF91CF911F910F910C943C
:10226000930BCF93DF93EC0160E089810E94BD0B5B
:1022700061E088810E94630B89810E943A0B01977B
:10228000D9F360E08881DF91CF910C94630BCF93F9
:10229000DF93EC0161E089810E94BD0B60E08981E0
:1022A0000E94630B61E088810E94630B61E0898179
:1022B0000E94630B60E08981DF91CF910C94BD0B8C
:1022C0000F931F93CF93DF931F92CDB7DEB78C018F
:1022D000462F61E0FC01818149830E94BD0B61E0D2
:1022E000F80181810E94630B61E0F80180810E9406
:1022F000630B60E0F80181810E94630B60E0F801EC
:1023000080810E94630B4981F801608181810F9077
:10231000DF91CF911F910F910C94930BEF92FF924D
:102320000F931F93CF93DF93CDB7DEB728970FB6E8
:10233000F894DEBF0FBECDBF09831A832B835E8363
:102340006F836E817F81832F90E050E0E42FF0E077
:102350003197252F30E02E173F0744F4D901A45AB6
:10236000BE4F2C91820F911D5F5FF3CF433030F051
:102370009B0123703327232B09F401964DE651E08E
:10238000649F9001659F300D749F300D1124215979
:1023900033426D5C77407695679576956795260F05
:1023A000371F280F391FA8E1B0E00E94353429817A
:1023B0007B018C01E20EF11C011D111DA80197018A
:1023C000ACE3B0E00E94C9332A817B018C01E20EAC
:1023D000F11C011D111DA80197010E94C9332B8119
:1023E000DC01CB01820F911DA11DB11DBC01CD01EE
:1023F00060587C4B8249974C28960FB6F894DEBF04
:102400000FBECDBFDF91CF911F910F91FF90EF9045
:102410000895FC018EED97E09683858381E08483A7
:10242000838310821182128283E0878308959F92B2
:10243000AF92BF92CF92DF92EF92FF920F931F93D2
:10244000CF93DF93CDB7DEB760970FB6F894DEBFBA
:102450000FBECDBF8C01CE0101960E940912F8017A
:102460008185882309F447C084EE8093BC00809165
:10247000BC0087FFFCCF80ED8093BB0084EC809391
:10248000BC008091BC0087FFFCCF1092BB0084ECA5
:102490008093BC008091BC0087FFFCCF84EE8093CA
:1024A000BC008091BC0087FFFCCF81ED8093BB0016
:1024B00084EC8093BC008091BC0087FFFCCFF801C6
:1024C0003296C801099634EC3093BC002091BC00D0
:1024D00027FFFCCF2091BB002193E817F907A1F754
:1024E00084E88093BC008091BC0087FFFCCF84E926
:1024F0008093BC0076C060EDC8010E946011C801E5
:102500000E94311160E0C8010E941711C8010E94A9
:10251000311161EDC8010E946011C8010E943111A2
:102520005801F2E0AF0EB11CE12CF12C60E0F80193
:1025300081810E94BD0B87E0C82ED12C912C61E0D7
:10254000F80180810E94630BF80181810E943A0B9F
:1025500099270C2C01C0880F0A94EAF7982A60E0AA
:10256000F80180810E94630BF1E0CF1AD10838F79F
:10257000F50191925F0161E0F8018181F6E0EF16CB
:10258000F10449F00E94BD0B60E0F80180810E94D7
:10259000630B60E008C00E94BD0B60E0F801808121
:1025A0000E94630B61E0F80181810E94630B61E08E
:1025B000F80180810E94630B60E0F80180810E9435
:1025C000630B60E0F80181810E94BD0BFFEFEF1A01
:1025D000FF0A27E0E216F10409F0A8CFC8010E9423
:1025E0004711F8018281982F9695969596959E7041
:1025F000292F220F220F920F8F70890F8B838381D7
:10260000982F9695969596959E70292F220F220FBA
:10261000920F8F70890F8A838481282F2F7087FFF4
:1026200009C085FB992790F9822FFCE09F9F800DC0
:10263000112409C08073869586958695982F990FE9
:10264000990F890F820F8983F80185818887868198
:10265000982F9695969596959E70292F220F220F6A
:10266000920F8F70890F8C838781982F96959695FE
:1026700096959E70292F220F220F920F8F70890F2F
:102680008D838085982F92959F708F70FAE09F9F21
:10269000800D112490E08053984F9F838E8388E0B3
:1026A000FE013196DE01199601900D928A95E1F7AF
:1026B00029853A854B855C856D857E858F859889D2
:1026C00060960FB6F894DEBF0FBECDBFDF91CF91FD
:1026D0001F910F91FF90EF90DF90CF90BF90AF9040
:1026E0009F900895DC01E0E0615038F08D91E8277B
:1026F000F0E0E057FF4FE491F7CF8E2F0895EF926F
:10270000FF920F931F93CF93DF937C018B01D42F04
:10271000DC011596ED91FC911697138615861486AB
:10272000DF011B9633961E92AE17BF07E1F7C0E09C
:10273000B801D70115968D919C9116970E94A40916
:10274000811102C080E010C0CD130AC067E0C8014B
:102750000E947213F8019781891302C081E004C0BE
:10276000CF5FDC1778F3E4CFDF91CF911F910F910A
:10277000FF90EF900895CF92DF92EF92FF920F9328
:102780001F93CF93DF931F92CDB7DEB76C01E62E78
:1027900008E010E0FF24F39461E08F2D8E2109F40E
:1027A00060E0C60149830E949017FF0C0150110997
:1027B00049810115110581F7411115C0F894D60121
:1027C0001196ED91FC91129791818C9180958923BE
:1027D00081831196ED91FC91129792818C91809555
:1027E0008923828378940F90DF91CF911F910F916D
:1027F000FF90EF90DF90CF900895CF92DF92EF920D
:10280000FF920F931F93CF93DF931F92CDB7DEB745
:102810008C01F62E40E065E579830E94BB13CF2C36
:102820007981D72E760188E0E80EF11CF6016191DE
:102830006F0140E0C8010E94BB13CE14DF04B1F762
:102840000F90DF91CF911F910F91FF90EF90DF904C
:10285000CF9008954F925F926F927F928F929F9246
:10286000AF92BF92CF92DF92EF92FF920F931F939E
:10287000CF93DF9300D0CDB7DEB72C018A01FC01E6
:102880008581968169837A830E94BF1769817A81E5
:102890008823C9F1F201858196810E94FD1340E0F1
:1028A0006EEBF201858196810E94BB13780148018D
:1028B000F9E08F0E911CF2016580768088E0A82EE9
:1028C000B12CCC24C394D12CC3010E946C1781116C
:1028D000DC28CC0CF1E0AF1AB108B1F7F701D192C6
:1028E0007F01E815F90539F7F201858196810E948B
:1028F000BF17813041F468E0C8010E94721391E073
:10290000F8012085821390E0892F0F900F90DF91BE
:10291000CF911F910F91FF90EF90DF90CF90BF90DC
:10292000AF909F908F907F906F905F904F900895A1
:102930000895CF93DF931F92CDB7DEB76983DC0193
:10294000ED91FC910280F381E02D41E050E0BE0169
:102950006F5F7F4F09950F90DF91CF910895FC0134
:10296000818D928D0895FC0184899589089520E7D1
:1029700032E0FC0131832083FB0140895189628967
:102980007389FC0142835383648375830895DC015A
:10299000ED91FC91048CF58DE02D0994CF93DF939C
:1029A0001F92CDB7DEB76983DC01ED91FC91028007
:1029B000F381E02D41E050E0BE016F5F7F4F09954C
:1029C0000F90DF91CF910895BF92CF92DF92EF9257
:1029D000FF920F931F93CF93DF9300D000D000D0CE
:1029E000CDB7DEB7FC01208D243009F04CC06A0160
:1029F0007B018C01B12C63E070E08B2D0E94CE2412
:102A0000811103C0F801B08E06C08831D9F3B394A8
:102A1000F4E0BF12F0CFF801808D8430A1F196E090
:102A2000E8E6F1E0DE01119601900D929A95E1F74A
:102A3000F70193819F779C8394819D8395819E83E9
:102A4000B7016E5F7F4F0E94E623B601F801808DCB
:102A50000E94D523F801808D90E0982F882746E0CA
:102A600050E0BE016F5F7F4F8A5F9B4F0E94EF2255
:102A7000F801128E118E20E8A60162E0808D0E947E
:102A8000312781E001C080E026960FB6F894DEBFC2
:102A90000FBECDBFDF91CF911F910F91FF90EF90AF
:102AA000DF90CF90BF900895CF93DF931F92CDB763
:102AB000DEB7FC01218D328D232B49F0BE016F5F03
:102AC0007F4F808D0E946026898190E002C08FEF49
:102AD0009FEF0F90DF91CF910895CF93DF93FC018B
:102AE000218D328D2115310519F48FEF9FEF11C023
:102AF000EC014217530708F0A901888D0E94AD260A
:102B00001816190694F7298D3A8D281B390B3A8F20
:102B1000298FDF91CF9108950F931F93CF93DF9368
:102B20001F92CDB7DEB7FC01218D328D232B61F0D2
:102B30008C0141E050E0BE016F5F7F4F808D0E94AD
:102B4000AD26181619061CF08FEF9FEF08C0F8018C
:102B5000818D928D0197928F818F898190E00F9066
:102B6000DF91CF911F910F9108950F931F93CF93F2
:102B7000DF93CDB7DEB728970FB6F894DEBF0FBE50
:102B8000CDBF8C01F801818D928D892B49F0D80140
:102B9000ED91FC910284F385E02DC8010995F2CFF7
:102BA000808D0E948B26181619065CF548E050E0CF
:102BB000BE016F5F7F4FD80158968C910E94AD2661
:102BC0009C0118161906DCF489819A81AB81BC81BD
:102BD000F801808B918BA28BB38B8D8190E0982F25
:102BE00088272E81820F911D958B848B2F8130E059
:102BF000322F22278885280F311D328F218FC9015E
:102C000002C080E090E028960FB6F894DEBF0FBEB9
:102C1000CDBFDF91CF911F910F910895AF92BF92D9
:102C2000CF92DF92FF920F931F93CF93DF938C018C
:102C30005B01EA01FC01C688D788F08C80E590E052
:102C40000E94F0238F2D0E9498088C179D0720F476
:102C50008F2D0E949808EC019E01A501B6018F2DD1
:102C60000E9433080E94EF23F801868997898C0F10
:102C70009D1F978B868BCE01DF91CF911F910F9176
:102C8000FF90DF90CF90BF90AF900895FF920F9389
:102C90001F93CF93DF93FB01DC0157961C921E928A
:102CA00056975896FC908281811109C083818111C9
:102CB00006C08481811103C085818823C1F041153C
:102CC0005105A9F08A01EF0180E590E00E94F02310
:102CD000BE016E5F7F4F8F2D0E94E623B8018F2DBE
:102CE0000E94D5230E94EF2381E090E002C080E0A3
:102CF00090E0DF91CF911F910F91FF900895CF93B6
:102D0000FC01C08D80E590E00E94F02360E270E05D
:102D10008C2F0E94230862E070E08C2F0E94CE244A
:102D200084FD19C062E070E08C2F0E94CE2483FFE6
:102D30000BC048E162E070E08C2F0E94CB230E9420
:102D4000EF2380E090E011C00E94EF2380E590E047
:102D50000E94F023E0CF40E162E070E08C2F0E94FF
:102D6000CB230E94EF2381E090E0CF910895CF9292
:102D7000DF92EF92FF920F931F93CF93DF93CDB724
:102D8000DEB7AF970FB6F894DEBF0FBECDBF7C01A4
:102D90006A0100E712E01A8309831C861B8688EE0D
:102DA00093E0A0E0B0E08D879E87AF87B88B88E482
:102DB00092E09A878987188F0F8B198E1A8E1B8E37
:102DC0001C8E84E089A31DA30CA31EA21FA218A61B
:102DD00019A68091250790912607A0912707B09109
:102DE00028078CA79DA7AEA7BFA78B839C83AD8325
:102DF000BE8318861F82AE014C5D5F4FCE010196E7
:102E00000E94AB1E81309105B1F4D701ED91FC9188
:102E10000488F589E02D1BA70AA78EA19FA1A8A56C
:102E2000B9A58CA79DA7AEA7BFA7A601BE01665DE9
:102E30007F4FC7010995AF960FB6F894DEBF0FBE5E
:102E4000CDBFDF91CF911F910F91FF90EF90DF9059
:102E5000CF900895CF93DF93EC01888D843061F09B
:102E60000E941D27E88DF0E0EE0FFF1FE35DF94F94
:102E70001182108284E0888FDF91CF910895EF92C4
:102E8000FF921F93CF93DF93FC01208D243011F02C
:102E900080E01CC07B01EC0110E0812F0E94F42433
:102EA000811102C0188F05C08831E1F31F5F143013
:102EB000A1F7888D843061F3FD86EC861A8E198E19
:102EC00020E0A70162E00E94312781E0DF91CF91ED
:102ED0001F91FF90EF900895FC0190810180F28195
:102EE000E02DF8948181892B81832281892F80951F
:102EF00028232283A7E0B0E01197F1F721818223F4
:102F00008183A3E2B0E01197F1F780817894EFEC30
:102F1000F0E03197F1F7982381E009F480E008951B
:102F2000FC0190810180F281E02D892F809560FF66
:102F300012C0F8942281822382838181892B81832C
:102F4000A3E2B0E01197F1F78281982B92837894F5
:102F500087ED90E011C0F8942281822382838181E1
:102F6000892B8183AFEFB0E01197F1F78281982B25
:102F7000928378948FE090E00197F1F70895FC0137
:102F800090810180F281E02DF8948181292F209594
:102F90008223818378948DE743E050E0815021F1D2
:102FA000DA011197F1F730813923C1F3F894828166
:102FB000822382838181892B81837894ABE7B7E078
:102FC0001197F1F7F894818128232183A3E1B1E0DF
:102FD0001197F1F78081982381E009F080E07894DF
:102FE000E3E6F6E03197F1F708954F925F926F9222
:102FF0007F928F929F92AF92BF92CF92DF92EF9289
:10300000FF921F93CF93DF93CDB7DEB72D970FB607
:10301000F894DEBF0FBECDBF7C019DE2A92E96E0E5
:10302000B92E10E0C12CD12C28EE422E23E0522ED6
:10303000612C712C30ED832E31E0932E1C821B828B
:103040004D825E826F8278869A8289821D87D50141
:103050002D913D915D01F7018481958128173907F4
:10306000B1F4CE0101960E94561A843169F0CE0166
:1030700001960E94561A8C3151F4CE0101960E949D
:103080005B19892B91F003C0CC24C394D12C1F5F12
:103090001430A1F6CD2871F4D701ED91FC91008494
:1030A000F185E02DC701099505C0CE0101960E946A
:1030B000EF1AEDCF2D960FB6F894DEBF0FBECDBF41
:1030C000DF91CF911F91FF90EF90DF90CF90BF9055
:1030D000AF909F908F907F906F905F904F900895EA
:1030E0002F923F924F925F926F927F928F929F9218
:1030F000AF92BF92CF92DF92EF92FF920F931F9306
:10310000CF93DF93CDB7DEB72E970FB6F894DEBF1F
:103110000FBECDBF7C016B015A010E94F5170DE275
:1031200016E020E0612C712C88EE282E83E0382EEA
:10313000412C512C90ED892E91E0992E1C821B82FE
:103140002D823E824F8258869A8289822D87F8018D
:10315000419151918F01F701848195814817590759
:1031600041F4CE0101962E870E94561A2E85873192
:10317000E9F02F5F243011F7C3012E960FB6F894B3
:10318000DEBF0FBECDBFDF91CF911F910F91FF909A
:10319000EF90DF90CF90BF90AF909F908F907F90F7
:1031A0006F905F904F903F902F900895A501B601CA
:1031B000CE0101962E870E946419680E791E2E8515
:1031C000D8CFFC019485FB018485981303C081E06E
:1031D000943009F480E0089521E0FC018485843076
:1031E00009F420E0822F08950895CF93DF931F9272
:1031F000CDB7DEB76983DC01ED91FC910280F381EC
:10320000E02D41E050E0BE016F5F7F4F09950F90C8
:10321000DF91CF910895DC01ED91FC91068CF78D43
:10322000E02D099591E089270895862F089581E082
:10323000862708950F931F93CF93DF931F92CDB7E7
:10324000DEB78C01DC01ED91FC910084F185E02D6D
:103250000995892B51F0BE016F5F7F4FF80184857E
:103260000E946026898190E002C08FEF9FEF0F904F
:10327000DF91CF911F910F910895FC0184850C94EB
:10328000AD26CF93DF931F92CDB7DEB741E050E07C
:10329000BE016F5F7F4FFC0184850E94AD2618162A
:1032A00019061CF4898190E002C08FEF9FEF0F9008
:1032B000DF91CF910895FC018485843011F00C9446
:1032C0008B2680E090E008958F929F92AF92BF92FC
:1032D000CF92DF92EF92FF920F931F93CF93DF93E2
:1032E0006C015B017A01FC01C485C43041F481E0CA
:1032F00090E0F6019383828380E090E057C08A01DA
:103300004130584010F000E018E080E590E00E9465
:10331000F0238C2F0E9498084C0163E070E08C2F02
:103320000E94CE24D82F0E94EF23D73111F0DC3138
:1033300021F48016910648F302C000E010E080E519
:1033400090E00E94F0239801A50160E070E08C2FCE
:103350000E94330860E270E08C2F0E94230862E034
:1033600070E08C2F0E94CE2484FD14C063E070E0D6
:103370008C2F0E94CE24811106C00E94EF238C2F37
:103380000E941D27B4CF0E94EF2380E590E00E94A9
:10339000F023E5CF40E162E070E08C2F0E94CB2368
:1033A0000E94EF23012B09F4A2CFC701DF91CF9137
:1033B0001F910F91FF90EF90DF90CF90BF90AF9053
:1033C0009F908F900895CF92DF92EF92FF920F938C
:1033D0001F93CF93DF93CDB7DEB7AF970FB6F894B7
:1033E000DEBF0FBECDBF7C016A0100E712E01A8389
:1033F00009831C861B8688EE93E0A0E0B0E08D87F1
:103400009E87AF87B88B88E492E09A878987188F68
:103410000F8B198E1A8E1B8E1C8E84E089A31DA320
:103420000CA31EA21FA218A619A680912507909191
:103430002607A0912707B09128078CA79DA7AEA7C4
:10344000BFA78B839C83AD83BE8318861F82AE018A
:103450004C5D5F4FCE0101960E94AB1E81309105FD
:10346000B1F4D701ED91FC910684F785E02D1BA7FF
:103470000AA78EA19FA1A8A5B9A58CA79DA7AEA7B5
:10348000BFA7A601BE01665D7F4FC7010995AF9634
:103490000FB6F894DEBF0FBECDBFDF91CF911F9165
:1034A0000F91FF90EF90DF90CF900895FC018485FD
:1034B000843011F00C94F42480E008958F929F9250
:1034C000AF92BF92CF92DF92EF92FF920F931F9332
:1034D000CF93DF93CDB7DEB72D970FB6F894DEBF4D
:1034E0000FBECDBF7C0100E010E038EE832E33E04C
:1034F000932EA12CB12C40EDC42E41E0D42E1C8281
:103500001B828D829E82AF82B886DA82C9820D8745
:10351000CE0101960E94561A811125C0F7014481FF
:10352000558120E061E0802F0E94312780E590E006
:103530000E94F02363E070E0802F0E94CE2483314C
:1035400029F462E070E0802F0E9423080E94EF239C
:10355000F70184819581000F111FF801E35DF94F98
:103560009183808305C00F5F1F4F0430110539F62A
:103570002D960FB6F894DEBF0FBECDBFDF91CF9171
:103580001F910F91FF90EF90DF90CF90BF90AF9081
:103590009F908F900895CF93DF93FC012485243072
:1035A000D1F0EC010E94561A843181F0882371F029
:1035B000883161F08C3161F4E881F9810084F18512
:1035C000E02DCE01099521E0892B19F420E001C0FE
:1035D00021E0822F01C080E0DF91CF910895CF924A
:1035E000DF92EF92FF921F93CF93DF93FC0114853C
:1035F0001430A9F1EC0180E590E00E94F02368E02E
:1036000070E0812F0E9423080E94EF230E94D4279C
:103610006B017C01CE010E94561A8823B1F061E053
:1036200070E080E090E00E949A270E94D427DC019D
:10363000CB018C199D09AE09BF09883E9340A105B5
:10364000B10540F38C850E941D27EC85F0E0EE0F5C
:10365000FF1FE35DF94F1182108284E08C87DF91B8
:10366000CF911F91FF90EF90DF90CF900895CF9270
:10367000DF92FF920F931F93CF93DF93FC0124857A
:10368000243009F072C06A01EB018C01F12C8F2DFE
:103690000E94F424811103C0F801F48607C08B7FD7
:1036A0008831D1F3F394F4E0FF12F1CFF80184856F
:1036B000843009F45AC020911C0130911D012F5F04
:1036C0003F4F11F420E030EC30931D0120931C019A
:1036D00040911C0150911D0120E061E00E943127C2
:1036E000F801F4848A818F3F51F48B818F3F91F4EC
:1036F0008C818F3F79F48D818F3F61F433C08111CC
:1037000009C08B81811106C08C81811103C08D811C
:10371000882341F1C114D10429F180E590E00E9491
:10372000F023BE016E5F7F4F8F2D0E94E623B6010E
:103730008F2D0E94D52364E070E08F2D0E94230816
:103740000E94EF23C8010E94561A873189F061E078
:1037500070E080E090E00E949A27C8010E94561A0B
:103760008111F0CF84E0F801848780E090E002C00E
:1037700081E090E0DF91CF911F910F91FF90DF905A
:10378000CF90089580E3FB0180833296842F829549
:103790008F7090E1899F401911244A3014F4405DE4
:1037A00001C0495C4293482F8111F0CF08952F92B8
:1037B0003F924F925F926F927F928F929F92AF92C1
:1037C000BF92CF92DF92EF92FF920F931F93CF930E
:1037D000DF93CDB7DEB7E3970FB6F894DEBF0FBE29
:1037E000CDBF7C011A012B0139010E94D4274B0166
:1037F0005C0187010D5B1F4FC8010E94B5151816AB
:103800001906A4F00E94D427DC01CB01881999097C
:10381000AA09BB09281639064A065B06D8F062E3F6
:1038200070E080E090E00E949A27E6CF42E250E00C
:10383000BE016F5F7F4FC8010E946D158981823084
:1038400011F080E061C1F801848995898334910584
:10385000C1F702C08FEF58C16D817E818F8198853D
:103860000E947C354B015C01F3016083718382838C
:10387000938346E050E0B701685F7F4FCE014D96DD
:103880000E949937892BE9F6F70180819181A28105
:10389000B38188169906AA06BB0698F284819581A1
:1038A000A681B78188159905AA05BB0550F28989BB
:1038B0009A89AB89BC8986879787A08BB18B8EEC60
:1038C000A82EB12CC8010E948C15F1E0AF1AB108E6
:1038D000C9F719A6670182E2C80ED11CF701B69696
:1038E000FBA7EAA7C7018A969DA78CA73C974F0123
:1038F00089969FA78EA73897F9ABE8AB1701F6E139
:103900002F0E311CC5979BAB8AABF801818D928D30
:10391000181619060CF0F7C0C8010E948C158333E5
:10392000910509F4CBC0FCF481309105C9F11CF478
:10393000892B59F3DCC083309105D1F1069709F04A
:10394000D6C0C8010E948C155C0144E050E06AA911
:103950007BA9C8010E946D15412C512CBB24F4E0B9
:10396000AF1AB10840C08A33910509F47BC03CF41A
:103970008533910569F0C69709F440C0B8C08B3310
:10398000910509F485C08F3F910509F4BECFAFC002
:10399000C8010E948C15C8010E948C1589A7B5CF5B
:1039A000C8010E948C1544E050E068A979A93AC08A
:1039B000C8010E948C155C0144E050E0B101C801CF
:1039C0000E946D15412C512CBB2494E0A91AB1081A
:1039D0004A145B040CF099CFC8010E948C15EFEFDC
:1039E0004E1A5E0AF5CF4A145B040CF08ECFC80164
:1039F0000E948C158FEF481A580AF5CFC8010E9413
:103A00008C15B82EF701828D811110C0838D811124
:103A10000DC0848D81110AC0858D811107C044E0DD
:103A200050E0B401C8010E946D156FCFEEA5FFA54F
:103A30004080518062807380B401CE0183960E94E1
:103A4000AF108DA19EA1AFA1B8A584159505A605BF
:103A5000B70529F3BB2009F458CFC8010E948C1583
:103A6000BA94F8CFC8010E948C1544E050E06AA5D2
:103A70007BA5C8010E946D15F70166A177A180A5FD
:103A800091A50E947C3566A377A380A791A73DCF1F
:103A9000C8010E948C1544E050E06CA57DA5C801CA
:103AA0000E946D15F70162A573A584A595A50E94D6
:103AB0007C3562A773A784A795A727CFC8010E946A
:103AC0008C1544E050E0B601C8010E946D15F70165
:103AD00062A173A184A195A10E947C3562A373A306
:103AE00084A395A366A777A780AB91AB0ECFC8013F
:103AF0000E948C15B82EBB2009F407CFC8010E9484
:103B00008C15BA94F8CF89A5E3960FB6F894DEBF6A
:103B10000FBECDBFDF91CF911F910F91FF90EF901E
:103B2000DF90CF90BF90AF909F908F907F906F90DD
:103B30005F904F903F902F9008957F928F929F9229
:103B4000AF92BF92CF92DF92EF92FF920F931F93AB
:103B5000CF93DF93CDB7DEB7A6970FB6F894DEBF4D
:103B60000FBECDBF8C01762E942E852E20E2B22E74
:103B7000CE0101967C01FC012B2D11922A95E9F7CB
:103B800080E792E09AA389A38FEF8BA38CA38DA3E8
:103B90008EA3680183E4C80ED11C43E450E0BE014B
:103BA0006F5D7F4FC6010E944616019609F4BFC0A3
:103BB00081E089838A8386E0A82EAB821C82F8018B
:103BC00064817581868197810E947C356D837E83B7
:103BD0008F83988789869A8680E890E09C878B8778
:103BE0004CE150E0B701C6010E940E16F7012B2DE3
:103BF00011922A95E9F7480188E0880E911CF4019A
:103C0000D70101900D92AA94E1F740E150E0B7018D
:103C1000C6010E940E16F7011192BA94E9F796E0D8
:103C2000A92EB12C40E250E0B701C6010E940E1649
:103C3000F1E0AF1AB108B1F783E6898392E89A837D
:103C400093E59B838C8385E38D8381E08E837F82E4
:103C50009DE3988797E099878A8786E0F401DE01E3
:103C60001B9601900D928A95E1F78CE0898B8A8BE7
:103C700061EB75E0CE0143960E94B837F8014385A9
:103C8000BE01675E7F4FC8010E94C21BF8014485D8
:103C9000BE01655E7F4FC8010E94C21BF8014585C9
:103CA000BE01635E7F4FC8010E94C21B4EE150E01F
:103CB000B701C6010E940E16F3E07F121EC082E318
:103CC000898384E08A83F80196859B8397859C830A
:103CD00090899D8391899E8396E39F838887828DB7
:103CE0008987838D8A87848D8B87858D8C874CE02F
:103CF00050E0B701C6010E940E1687E3898386E073
:103D00008A8391E09B8393E09C838D838FE08E83F5
:103D10008AE38F838BE388878FEF898749E050E0C0
:103D2000B701C6010E940E16C6010E947F16A69614
:103D30000FB6F894DEBF0FBECDBFDF91CF911F91BC
:103D40000F91FF90EF90DF90CF90BF90AF909F903A
:103D50008F907F9008952F923F924F925F926F9233
:103D60007F928F929F92AF92BF92CF92DF92EF920B
:103D7000FF920F931F93CF93DF93CDB7DEB7659775
:103D80000FB6F894DEBF0FBECDBF7C016B013A01C8
:103D9000FB0120E080E090E06AE03191332309F1FB
:103DA00040ED430F4A3080F4689FA001699F500D99
:103DB0001124CA01C097830F911D37FD9A958F3F3B
:103DC000910559F350F313C03E3289F4233079F052
:103DD000D301A20FB11D12968C932F5F80E090E06B
:103DE000DCCF233021F4F301858381E021C0F7018A
:103DF000428153816481758180912D0790912E07B6
:103E0000A0912F07B0913007481759076A077B0721
:103E100009F49EC10E94D4278701085F1F4F6F706D
:103E200077277C5FC8010E943F17813019F080E03E
:103E300090E0F3C180E792E09A838983F701828161
:103E40009381A481B5818B839C83AD83BE8345E33D
:103E500050E0BE016F5F7F4FC8010E944616892B5C
:103E600019F4C12CD12C6FC10E94D427F70177839C
:103E700066837627672776277A83698342E050E056
:103E8000BE016F5F7F4FC8010E940E1681E090E077
:103E90009E878D8742E050E0BE01635F7F4FC8017F
:103EA0000E940E1680E091E09E878D8742E050E0F0
:103EB000BE01635F7F4FC8010E940E161E861D86DD
:103EC00042E050E0BE01635F7F4FC8010E940E16C2
:103ED00042E050E0BE01635F7F4FC8010E940E16B2
:103EE00042E050E0BE01635F7F4FC8010E940E16A2
:103EF0005601F5018081882311F1F6015F0181915E
:103F0000811115C045018C189D081814190494F4EA
:103F10008F8641E050E0BE01615F7F4FC8010E9483
:103F20000E16A401B601C8010E940E1603C08E32FF
:103F300029F7E8CF6501FFEFCF1ADF0ADACF1F8636
:103F400041E050E0BE01615F7F4FC8010E940E1644
:103F5000C12CDD24D394DE86CD8642E050E0BE0144
:103F6000635F7F4FC8010E940E16DE86CD8642E059
:103F700050E0BE01635F7F4FC8010E940E16C8016A
:103F80000E947F16892B09F46CCF63E0A62EB12C1A
:103F9000F2E06F0E711C0E94D4271B012C01C80196
:103FA0000E94B51518161906A4F00E94D427DC014A
:103FB000CB0182199309A409B50989389341A10558
:103FC000B105D0F462E370E080E090E00E949A27AF
:103FD000E6CFF7014281538164817581808D918D97
:103FE000A28DB38D481759076A077B0741F4848D6A
:103FF000958DC59721F406C02FEF3FEF9AC02EEFA5
:104000003FEF97C0F70181A192A10C970CF4A6C0D5
:104010004CE050E0BE016F5F7F4FC8010E946D15FC
:104020008B8190E0982F88272C81822B9A8B898B0B
:10403000298130E0322F22274A81242BF701468143
:1040400057814217530709F086C097FF84C08F70CD
:104050009270892B09F0DEC0CF80D12CDC2CCC24CF
:104060008885C82AC114D10409F4D1C0812C912CAF
:104070008D8190E0982F88272E81822B88169906B3
:1040800008F46FC0812C912C41E050E0BE016D5EC0
:104090007F4FC8010E946D158B89982F907C09F085
:1040A00093C0811186C08B898111EECF42E050E030
:1040B000BE01615F7F4FC8010E946D1542E050E074
:1040C000BE01635F7F4FC8010E946D15C8010E9449
:1040D0008C15C8010E948C15C8010E948C15C8015E
:1040E0000E948C1542E050E0BE016F5E7F4FC80118
:1040F0000E946D158F8598898115914009F069C0DE
:104100002D853E853227232732272130310509F0BE
:1041100060C089899A898115944009F075C044E08E
:1041200050E0B301C8012C8B3D8B0E946D152C898A
:104130003D896901F1E0AF1AB10829F02FEFC216ED
:10414000D20609F428CFC8010E942A17C60165C00B
:104150008EEF9FEF62C02CEF3FEFEBCF2DEF3FEFE5
:10416000E8CF41E050E0BE01635F7F4FC8010E948D
:104170006D158D85811113C08D858111F2CFC80118
:104180000E948C15C8010E948C15C8010E948C15D4
:10419000C8010E948C15FFEF8F1A9F0A69CF8D8589
:1041A0009FEF980F9D87882339F3C8010E948C15D3
:1041B000F6CF8B899FEF980F9B8B882309F473CFE1
:1041C000C8010E948C15F5CFC8010E948C151B8A6E
:1041D0006ACF412C512C89899A8998278927982759
:1041E0004816590638F4C8010E948C158FEF481AFA
:1041F000580AF1CFEFEF8E1A9E0A8C149D0409F035
:1042000043CF26EF3FEF95CF27EF3FEF92CF2AEF37
:104210003FEF8FCF2BEF3FEF8CCF65960FB6F89423
:10422000DEBF0FBECDBFDF91CF911F910F91FF90E9
:10423000EF90DF90CF90BF90AF909F908F907F9046
:104240006F905F904F903F902F9008952F923F92E4
:104250004F925F926F927F928F929F92AF92BF9296
:10426000CF92DF92EF92FF920F931F93CF93DF9342
:10427000CDB7DEB727970FB6F894DEBF0FBECDBF20
:104280008C010E9452322FEC37E040E050E00E9457
:10429000AA33DC01CB010196A11DB11DF801848375
:1042A0009583A683B78380839183A283B3835801C8
:1042B000F3E4AF0EB11CC5010E942A1764E470E05C
:1042C000C5010E943F17882309F43CC10E94D427EE
:1042D0002B013C01812C912C1D82C8018E5B9F4FCC
:1042E0009F838E8343E0342E58EEC52E53E0D52EA7
:1042F000E12CF12C62E0262EAE81BF818C918330BF
:1043000009F407C1811120C0F80184819581A6813B
:10431000B7810196A11DB11D84839583A683B783C0
:104320000E94D4276419750986099709A701960187
:104330000E941334A90161E0C8010E949D1D81E023
:10434000AE81BF818C93C6C08430F9F4F8018481BA
:104350009581A681B7810196A11DB11D84839583A6
:10436000A683B7830E94D427641975098609970923
:10437000A70196010E941334A90163E0C8010E94BD
:104380009D1DAE81BF812C92A5C0813061F5F801E1
:1043900042AD53AD64AD75AD9E012F5F3F4FC80177
:1043A0000E94D71B8D83823009F094C089819A8145
:1043B000AB81BC81F80184839583A683B7830E9477
:1043C000D4276419750986099709A70196010E94E7
:1043D0001334A90163E0C8010E949D1DED81AE81E7
:1043E000BF81EC937EC0823009F074C0D801DA96A8
:1043F0004D915D916D917C91DD979E012F5F3F4FB7
:10440000C8010E94D71B8D83853009F05CC0EE8106
:10441000FF813082F80182A193A1A4A1B5A1892BCB
:104420008A2B8B2B41F484E893E0A0E0B0E082A3D8
:1044300093A3A4A3B5A3F80186A197A1A0A5B1A5B4
:10444000892B8A2B8B2B61F482A193A1A4A1B5A106
:10445000B695A7959795879586A397A3A0A7B1A78B
:10446000F80182A593A5A4A5B5A5892B8A2B8B2B32
:10447000A9F482A193A1A4A1B5A1AC01BD0123E03F
:1044800076956795579547952A95D1F7841B950B97
:10449000A60BB70B82A793A7A4A7B5A7F80186A17F
:1044A00097A1A0A5B1A586A797A7A0ABB1AB82A500
:1044B00093A5A4A5B5A582AB93ABA4ABB5AB88245B
:1044C0008394912C0EC0FD81F63021F4AE81BF8122
:1044D0001C9207C0BD81BF3F21F4EE81FF81108295
:1044E0001D82F1E08F16910409F406CF0E94D427B3
:1044F000DC01CB0184199509A609B709F80126A9A1
:1045000037A940AD51AD281739074A075B0708F0B6
:10451000F3CEC5010E942A17F80184819581A681F6
:10452000B7810196A11DB11D84839583A683B783AE
:104530000E94D427F801FE9660837183828393835F
:10454000C40102C080E090E027960FB6F894DEBF69
:104550000FBECDBFDF91CF911F910F91FF90EF90D4
:10456000DF90CF90BF90AF909F908F907F906F9093
:104570005F904F903F902F9008952A9A0895CF9280
:10458000DF92EF92FF920F931F93CF93DF93EC0193
:104590007A018B016C01C40ED51ECC15DD05A9F086
:1045A0000E9446268FE00E94C7248D2F0E94C724B8
:1045B0008C2F0E94C724219680E00E94C724F80116
:1045C00081938F010E94BD22E8CFC701DF91CF9177
:1045D0001F910F91FF90EF90DF90CF900895CF92B1
:1045E000DF92EF92FF920F931F93CF93DF93EC0133
:1045F0007A018B016C01C40ED51ECC15DD05A1F02E
:104600000E94462680EF0E94C7248D2F0E94C72457
:104610008C2F0E94C7242196F80181918F010E945E
:10462000C7240E94BD22E9CFC701DF91CF911F911E
:104630000F91FF90EF90DF90CF9008951F93CF934D
:10464000DF9300D0CDB7DEB7182F6A8399830E941D
:10465000462680EF0E94C7249981892F0E94C72493
:10466000812F0E94C7246A81862F0E94C7240E943E
:10467000BD2281E00F900F90DF91CF911F9108959F
:1046800080E00895089581E090E030912C0620911B
:104690002B06321710F480E090E0919581959109F6
:1046A000089580912C0690912B06891730F48F5F26
:1046B00080932C0680E090E008958FEF9FEF08959F
:1046C00080912B0690E020912C06821B9109089581
:1046D000089580E090E00895CF92DF92EF92FF92EC
:1046E0000F931F93CF93DF937C01262F972F8A017F
:1046F0008091E508882391F0C62FD72F6E01C40E54
:10470000D51ECC15DD0571F06991D701ED91FC91B5
:104710000190F081E02DC7010995F3CF642F822F1E
:104720000E941F01C801DF91CF911F910F91FF904F
:10473000EF90DF90CF900895CF93DF931F92CDB786
:10474000DEB769832091E5082223D1F02091290664
:10475000203240F021E030E0FC013383228380E00E
:1047600090E015C080912A06E82FF0E0EA51F74F5B
:10477000998190838F5F80932A068093290605C0D4
:1047800061E0CE0101960E941F0181E090E00F9050
:10479000DF91CF9108959B0190E00496982F882790
:1047A000642F820F931F0C941E23CF93DF93C82F87
:1047B000D62F472F60E170E00E94CB234D2F61E19F
:1047C00070E08C2FDF91CF910C94CB2390E0982F49
:1047D000882744E050E0845F9B4F0C94EF220895BB
:1047E0008CBD9DBD0895CF93FC01C48121E0209331
:1047F000E508C093060910922A06109229068385BF
:10480000682B81E397E00E949C23809129068132E6
:1048100008F046C0909128069111FCCF92E0909349
:10482000280691E0909327069FEF9093E40810925A
:10483000E3088093E208A6EEB8E022EC38E0F90144
:104840009E2F921B981718F49D919193F9CF109277
:10485000C1088091C108CC0FC82BC093C1088091BA
:104860002606813061F4109226068091C10880935B
:10487000BB008091BC0083FDF8CF85EC01C085EEC4
:104880008093BC00809128068230E1F38091E40897
:104890008F3F31F08091E408803211F08091E4087C
:1048A00010922A06109229061092E508CF910895D9
:1048B0000F931F93CF938C01C62F0E94F3236C2F6D
:1048C0006460C8010E94F3236C2F6B7FC8010E94B3
:1048D000F32383EC90E00197F1F7CF911F910F91B3
:1048E0000895FF920F931F93CF93DF931F92CDB73D
:1048F000DEB78C01F62E962F907F692F642BC801AE
:1049000049830E94582480E1F89EB0011124498116
:10491000642BC8010F90DF91CF911F910F91FF90F1
:104920000C94582441E00E94712481E090E00895A5
:10493000CF93DF93CDB7DEB728970FB6F894DEBFDD
:104940000FBECDBF9C0188E0E8E7F2E0DE011196E2
:1049500001900D928A95E1F7F9018085841710F492
:104960004FEF480FFE013196E40FF11DE40FF11DEA
:104970009081690F606840E0C90128960FB6F894ED
:10498000DEBF0FBECDBFDF91CF910C9471248EBDE1
:1049900000000DB407FEFDCF8EB508950F931F9351
:1049A000CF93DF931F92CDB7DEB790E00496982F98
:1049B00088278C01060F171F0E9446268FE00E9451
:1049C000C724812F0E94C724802F0E94C72480E023
:1049D0000E94C72489830E94BD2289810F90DF91A4
:1049E000CF911F910F910895CF93C82F80E590E04C
:1049F0000E94F02363E070E08C2FCF910C94CE24C2
:104A00001F920F920FB60F9211242F933F934F9343
:104A10005F936F937F938F939F93AF93BF93EF9326
:104A2000FF938091B900887F803609F49CC068F5B7
:104A3000883209F45BC090F4803109F454C038F432
:104A4000882309F4F6C0883009F44DC0F6C08831D7
:104A500009F44CC0803209F45DC0EFC0803409F421
:104A600068C048F4803309F455C0883309F0E5C0C4
:104A70008093E408D8C0803509F44FC0883509F424
:104A80005DC0883409F0D9C0D6C0883909F4C7C0E0
:104A9000A8F4883709F467C038F4883609F463C08D
:104AA000803709F460C0C9C0883809F4B8C08039BB
:104AB00009F45FC0803809F0C0C05BC0803B09F4D6
:104AC00086C038F4803A09F466C0883A09F47FC099
:104AD000B4C0803C09F4A7C0883C09F4A4C0883B5A
:104AE00009F48AC0AAC08091C10810C09091E3085F
:104AF0008091E208981770F5E091E30881E08E0F4D
:104B00008093E308F0E0EE53F74F80818093BB0081
:104B100085EC86C08093E4088EC0E091E30881E0D4
:104B20008E0F8093E3088091BB00F0E0EE53F74FC7
:104B300080839091E3088091E2086EC0E091E308E1
:104B400081E08E0F8093E3088091BB00F0E0EE538C
:104B5000F74F80838091270681116DC081E080939B
:104B6000260684EA61C083E0809328061092C0087C
:104B7000CFCF8091C008803208F051C0E091C008CA
:104B800081E08E0F8093C0088091BB00F0E0E0567A
:104B9000F74F8083BDCF85EC8093BC001092280630
:104BA0008091C008803230F4E091C008F0E0E05617
:104BB000F74F10826091C00870E0E0919E08F0917C
:104BC0009F0880EA98E009951092C00836C084E0FA
:104BD0008093280610929D0810929A08E0919B08F5
:104BE000F0919C08099580919A08811105C081E097
:104BF00080939A0810927A08E0919D0881E08E0FC8
:104C000080939D08F0E0E658F74F80818093BB00C9
:104C100090919D0880919A08981708F479CF85E8BB
:104C20008093BC000AC085EC8093BC0010922806DB
:104C300004C01092E4080E941501FF91EF91BF910A
:104C4000AF919F918F917F916F915F914F913F9124
:104C50002F910F900FBE0F901F9018951F93CF9319
:104C6000DF93182F66E270E00E94CE24C82FD0E0B8
:104C700067E270E0812F0E94CE24DC2FCC279E01BA
:104C8000282BC901DF91CF911F9108952A9808958B
:104C90001F93CF93DF93182F60E270E00E94CE2421
:104CA000C82FD0E061E270E0812F0E94CE24DC2F7B
:104CB000CC279E01282BC901DF91CF911F91089528
:104CC000EF92FF921F93CF93DF93182F7B0180E524
:104CD00090E00E94F02368E270E0812F0E94CE24D1
:104CE000C82FD0E069E270E0812F0E94CE24DC2F33
:104CF000CC27BE01682B21E030E0A701812F0E9464
:104D0000B4080E94EF2381E090E0DF91CF911F91E2
:104D1000FF90EF900895FF920F931F93CF93DF932F
:104D2000F82E80E590E00E94F023C0E0D0E08F2DC7
:104D30000E942E268C01892B21F08F2D0E942E2679
:104D4000EC01C017D10799F70E94EF23CE01DF9144
:104D5000CF911F910F91FF900895AF92BF92DF9274
:104D6000EF92FF920F931F93CF93DF93D82E7B0187
:104D70008A0180E590E00E94F023C0E0D0E08D2D14
:104D80000E942E265C01892B21F08D2D0E942E265B
:104D9000EC01CA15DB0599F7209799F463E070E000
:104DA0008D2D0E94CE248431D9F18823C9F1C1E030
:104DB000D0E08C3111F4C0E0D0E0D195C195D1099B
:104DC0002FC00C171D070CF4E8011C161D0644F536
:104DD00068E270E08D2D0E94CE24082F10E069E279
:104DE00070E08D2D0E94CE24102F0027082B9E01ED
:104DF000A701B8018D2D0E94B4080C0F1D1F412F73
:104E000068E270E08D2D0E94CB23402F69E270E0B4
:104E10008D2D0E94CB2360E470E08D2D0E9423082D
:104E20000E94EF23CE01DF91CF911F910F91FF9050
:104E3000EF90DF90BF90AF900895CF93C82F80E59B
:104E400090E00E94F02360E170E08C2F0E94230824
:104E50004FEF62E070E08C2F0E94CB23CF910C9437
:104E6000EF23FF920F931F93CF93DF9300D0CDB723
:104E7000DEB7F82E8A012A8369830E941D2780E508
:104E800090E00E94F0232A816981462F422B60E046
:104E900070E08F2D0E94CB230115110551F4009174
:104EA0000709109108090F5F1F4F1093080900931D
:104EB0000709412F64E070E08F2D0E94CB23402F23
:104EC00065E070E08F2D0E94CB2361E070E08F2DB4
:104ED0000E9423080E94EF2381E00F900F90DF9142
:104EE000CF911F910F91FF9008953FB7F894809153
:104EF0000E0990910F09A0911009B091110926B5E2
:104F0000A89B05C02F3F19F00196A11DB11D3FBF01
:104F1000BA2FA92F982F8827820F911DA11DB11D8F
:104F2000BC01CD0142E0660F771F881F991F4A958B
:104F3000D1F708958F929F92AF92BF92CF92DF9256
:104F4000EF92FF926B017C010E9475274B015C017F
:104F5000C114D104E104F104F1F00E947527DC01D1
:104F6000CB0188199909AA09BB09883E9340A1057C
:104F7000B10570F321E0C21AD108E108F10888EE0A
:104F8000880E83E0981EA11CB11CC114D104E10459
:104F9000F10419F7DDCFFF90EF90DF90CF90BF9035
:104FA000AF909F908F9008952FB7F89460910A0961
:104FB00070910B0980910C0990910D092FBF0895F4
:104FC0001F920F920FB60F9211242F933F938F933E
:104FD0009F93AF93BF9380910A0990910B09A09181
:104FE0000C09B0910D093091090923E0230F2D37E9
:104FF00020F40196A11DB11D05C026E8230F0296DD
:10500000A11DB11D2093090980930A0990930B09F2
:10501000A0930C09B0930D0980910E0990910F098E
:10502000A0911009B09111090196A11DB11D8093A5
:105030000E0990930F09A0931009B0931109BF9125
:10504000AF919F918F913F912F910F900FBE0F9035
:105050001F901895CF93DF93CDB7DEB7E9970FB6C2
:10506000F894DEBF0FBECDBF789484B5826084BD56
:1050700084B5816084BD85B5826085BD85B581605C
:1050800085BD80916E00816080936E0010928100DA
:105090008091810082608093810080918100816095
:1050A0008093810080918000816080938000809156
:1050B000B10084608093B1008091B00081608093E2
:1050C000B00080917A00846080937A0080917A00A9
:1050D000826080937A0080917A00816080937A0068
:1050E00080917A00806880937A001092C1000E94BB
:1050F000340A60E872E086E896E00E945E0F109243
:105100002C0610922B0610922A0610922906109255
:10511000280681E0809327061092260661E082E14E
:105120000E94630B61E083E10E94630B8091B900F0
:105130008E7F8093B9008091B9008D7F8093B900F4
:1051400088E48093B80085E48093BC0010926D07DA
:10515000809172070E94CE0A0E942A0D82E00E946E
:10516000CE0A88E08093730760E088E697E00E94AB
:10517000F3231092360667E872E086E896E00E9414
:105180005E0F0E942A0DE0917907F0917A0713864D
:1051900015861486DF011B9633961E92AE17BF0745
:1051A000E1F71092780701E0BE016F5F7F4F8091B9
:1051B000790790917A070E94A409882309F453C0C3
:1051C00067E0CE0101960E94721398858913ECCF97
:1051D00080917407811127C08091790790917A0797
:1051E0000E94BF17BE016F5F7F4F8091790790913A
:1051F0007A070E94FD1340E064EB8091790790915B
:105200007A070E94BB138091790790917A070E94D8
:105210006C17182F8091790790917A070E94BF1719
:10522000112309F477C2109175078981803109F43F
:1052300036C6CE0101960E949D0A811718F480910E
:10524000750709C08981803111F48CE004C0CE015A
:1052500001960E949D0A80937507809178078F5F61
:1052600080937807A1CF8CE080937507E12CF12C17
:105270000FE53FE7D32E4FE1C42E5FE3B52E8091BB
:10528000780790E0E816F9060CF0A6C04E2DBE0196
:10529000625F7F4F84E797E00E947F13109175074C
:1052A000193020F01D3018F01CE001C019E08E8587
:1052B000803129F0CE010E960E949D0A01C08CE03B
:1052C000811709F485C0AE014F5F5F4FBE01625F79
:1052D0007F4F84E797E00E942A14882309F478C05E
:1052E0008E85803109F474C01B3041F01C3021F0F0
:1052F0001A3031F4BD8205C0DD8203C00D8301C0C8
:10530000CD828091790790917A070E94BF17BE01E4
:10531000625F7F4F8091790790917A070E94FD1319
:1053200040E06EE48091790790917A070E94BB1368
:1053300040E06B818091790790917A070E94BB13BE
:1053400040E06C818091790790917A070E94BB13AD
:105350008E85803141F040E06D8180917907909198
:105360007A070E94BB138091790790917A070E9477
:10537000BF17BE01625F7F4F8091790790917A07D6
:105380000E94FD134091740768E480917907909121
:105390007A070E94BB1364E170E080E090E00E9415
:1053A0009A2780917407882331F06AE070E080E0EA
:1053B00090E00E949A278091790790917A070E9445
:1053C000BF1780917507181708F4182F10937507E9
:1053D0002FEFE21AF20A53CF1092370610923806D6
:1053E0001092390610923A0663E972E086E896E078
:1053F0000E945E0F00E712E01A8309838091640720
:1054000090916507A0916607B09167078B839C8395
:10541000AD83BE83CE0101960E94F90B0E94340A2F
:1054200068EE73E080E090E00E949A278FE497E0B6
:105430000E945E1A1A83098380914B0790914C0752
:10544000A0914D07B0914E078B839C83AD83BE83A3
:1054500042E157E2BE016F5F7F4F85E597E00E9412
:10546000371B892B19F06DEA73E002C06FE972E017
:1054700086E896E00E945E0F80E792E09A83898337
:1054800080914B0790914C07A0914D07B0914E072A
:105490008B839C83AD83BE8347E150E0BE016F5F89
:1054A0007F4F85E597E00E94371B61E089E00E940D
:1054B000BD0B61E08CE00E94BD0B61E08BE00E94BF
:1054C000BD0B62E087E00E94BD0B62E086E00E94B7
:1054D000BD0B60E088E00E94BD0B8EE090E00E9472
:1054E0009D35FC018CE291E09183808381EB92E019
:1054F000938782878BEB92E09587848784E797E098
:105500009583848388E697E09783868305E917E08F
:105510001187008781E090E093838283F0934206B5
:10552000E093410688E090E00E949D35FC0184E311
:1055300091E09183808380EC92E09583848384EC76
:1055400092E09783868313830283F0933E06E09371
:105550003D0684E090E00E949D358C018CE391E053
:10556000D8018D939C9368EC72E086E896E00E94E7
:105570005E0FF8011382128261E08BE00E94630BE0
:105580001093400600933F0684E090E00E949D3512
:1055900024E431E0DC0111963C932E9313961C9287
:1055A0001E92129790933C0680933B0668EE73E040
:1055B00080E090E00E949A2762ED72E086E896E033
:1055C0000E945E0F0E94890180E8882E88E3982E51
:1055D000AA24A394B12C98EE492E93E0592E612C65
:1055E000712C20E7222E22E0322E6EED72E086E84A
:1055F00096E00E945E0F68EE73E080E090E00E940B
:105600009A27009141061091420669EE72E086E801
:1056100096E00E945E0F41E060E0F801868197818C
:105620000E94982469EE72E086E896E00E945E0F80
:10563000D80118968D919C9119970E947109BC010F
:10564000F801868197810E949F1041E068E0D801AF
:1056500016968D919C9117970E949824F801808549
:1056600091850E940C09BC0186E896E00E945E0FBD
:10567000D80118968D919C9119970E940C09BC0134
:10568000F801868197810E949F1061EF72E086E8A1
:1056900096E00E949F10D80118968D919C911997C1
:1056A0000E940C09BC0186E896E00E949F1063EA04
:1056B00075E086E896E00E949F10809141069091E7
:1056C00042060E94580768EC70E080E090E00E947B
:1056D0009A2780914106909142060E94580786E0E1
:1056E0000E943A0B892BC9F46AEF72E086E896E0D3
:1056F0000E945E0F60E089E00E94630B00913B0610
:1057000010913C0660E08CE00E94630BF80113826C
:105710001282B8C30093740786CD87E00E943A0BCB
:10572000892B09F498C380913506811194C3809127
:105730004106909142060E946F066B017C01009128
:105740003F0610914006D80112968D919C911397B7
:1057500081309105F1F46EE073E086E896E00E94F6
:105760005E0F20E030E048EE51E4C701B6010E9430
:10577000863287FF23C068EC72E086E896E00E94DC
:105780005E0FF8011382128261E08BE00E94630BCE
:1057900015C0892B99F46FE173E086E896E00E94CA
:1057A0005E0F20E030E048EF51E4C701B6010E94EF
:1057B000523587FD03C0C8010E945B0600913D067B
:1057C00010913E06C8010E947C04892B71F46FE29F
:1057D00073E086E896E00E945E0F68E373E086E877
:1057E00096E00E945E0F61E012C0C8010E947C0436
:1057F000019781F462E473E086E896E00E945E0F10
:105800006AEF72E086E896E00E945E0F60E089E051
:105810000E94630B00913B0610913C0661E08CE016
:105820000E94630BE1E0F0E0D8011396FC93EE9345
:1058300012976CE473E086E896E00E945E0F809118
:10584000370690913806A0913906B0913A06019634
:10585000A11DB11D8138F8E39F07F1E0AF07B10545
:105860004CF48093370690933806A0933906B09392
:105870003A0608C010923706109238061092390680
:1058800010923A0620913706309138064091390639
:1058900050913A06A8ECB0E00E94C933A5019401EA
:1058A0000E94AA33672B682B692B11F40E9489018F
:1058B0008FE497E00E94F5170DE216E0F12C1C82B0
:1058C0001B824D825E826F82788640ED51E05A8362
:1058D0004983FD86D8012D913D918D01809153071B
:1058E0009091540728173907F1F4CE0101960E94D0
:1058F000561A873111F08C31B1F4CE0101960E9415
:105900005B19892B81F02B813C818D819E81AF8138
:10591000B88549855A856B857C854EAB5FAB68AF92
:1059200079AFFD840AC0F39454E0F512C8CF88EE35
:1059300093E0A0E0B0E020E030E0309358072093FF
:1059400057078093590790935A07A0935B07B0932A
:105950005C076EA97FA988AD99AD60935D077093D0
:105960005E0780935F0790936007F092610785E57B
:1059700097E00E945B19892B09F488C164E573E004
:1059800086E896E00E945E0F80913606811103C082
:1059900081E08093360685E597E00E94411989836E
:1059A0001A8200914107109142070F5F1F4FB80103
:1059B0008DE397E00E94A50E882399F020913D0782
:1059C00030913E078091410790914207BE016F5F81
:1059D0007F4F820F931F0E94B837109342070093A6
:1059E00041071A8219821C821B821E821D826091CD
:1059F0003D0770913E076115710541F040914107E7
:105A000050914207CE0101960E94CC0EBE016F5FFD
:105A10007F4F86E896E00E94A11086E896E00E94FB
:105A20005A0F85E997E00E9417122E873F87488B0F
:105A3000598B6A8B7B8B8C8B9D8B022F65E078E07A
:105A4000CE0101960E94730E882311F185E997E03B
:105A50000E941712142F2E8B3F8B488F598F6A8FFD
:105A60007B8F8C8F9D8F85E997E00E9417122E8F78
:105A70003F8F48A359A36AA37BA38CA39DA3412F67
:105A8000632F8FEF800F0E945C0A65E673E029C0E8
:105A90006FEF77E0CE0101960E94730E882341F1EB
:105AA00085E997E00E941712142F2EA33FA348A761
:105AB00059A76AA77BA78CA79DA785E997E00E94B5
:105AC00017122EA73FA748AB59AB6AAB7BAB8CAB89
:105AD0009DAB412F632F81E0800F0E945C0A64E739
